:100000000C9464000C948C000C948C000C948C0068
:100010000C948C000C948C000C948C000C94E20DCD
:100020000C94D80D0C948C000C948C000C948C00C7
:100030000C948C000C948C000C948C000C948C0010
:100040000C94F8120C948C000C948C000C948C0082
:100050000C948C000C948C000C948C000C948C00F0
:100060000C948C000C948C000000000024002700ED
:100070002A0000000000250028002B0000000000DE
:1000800023002600290004040404040404040202DA
:100090000202020203030303030302020102040833
:1000A00010204080010204081020010204081020E2
:1000B0004080000000070002010000030406000069
:1000C000000000000000080E11241FBECFEFD4E096
:1000D000DEBFCDBF12E0A0E0B1E0E8E5FAE202C089
:1000E00005900D92A639B107D9F713E0A6E9B2E061
:1000F00001C01D92A935B107E1F710E0C8ECD0E0CE
:1001000004C02297FE010E942615C63CD107C9F7FC
:100110000E94CB0F0C942A150C940000EF92FF92D2
:100120000F931F937B018C0120E030E040E05FE4FF
:100130000E943A0488238CF0C801B70120E030E027
:1001400040E05FE40E9406020E9453059B01AC015F
:10015000205030404040504806C0C801B7010E94BE
:1001600053059B01AC01B901CA011F910F91FF908A
:10017000EF900895A0E0B0E0E0ECF0E00C94ED1416
:10018000DC012B01FA019C91923008F439C1EB019A
:100190008881823008F433C1943069F4843009F0E6
:1001A0002FC111969C9111978981981709F428C144
:1001B000ABE6B1E025C1843009F421C18230A9F455
:1001C000923009F01DC19A01AD0188E0EA01099061
:1001D000AE01E90109929E018150C1F7E2018981D6
:1001E00011969C918923818308C1923009F407C13B
:1001F00012962D903C901397EB018A819B81149667
:10020000AD90BD90CD90DC901797EC80FD800E8175
:100210001F819101281B390BB90137FF04C06627E4
:100220007727621B730B603271050CF061C01216E8
:1002300013066CF537014801062E04C09694879486
:10024000779467940A94D2F721E030E040E050E0E0
:1002500004C0220F331F441F551F6A95D2F7215047
:100260003040404050402E213F2140235123211552
:1002700031054105510521F021E030E040E050E03A
:1002800079018A01E628F728082919293CC0232B7F
:10029000D1F1260E371E35014601062E04C0969474
:1002A0008794779467940A94D2F721E030E040E095
:1002B00050E004C0220F331F441F551F6A95D2F728
:1002C00021503040404050402A213B214C215D21AB
:1002D000211531054105510521F021E030E040E0D4
:1002E00050E059016A01A628B728C828D9280BC0B0
:1002F000821593052CF01C01AA24BB24650103C0C0
:10030000EE24FF24870111969C91D20111968C91C5
:10031000981709F445C0992339F0A80197012A19C3
:100320003B094C095D0906C0A60195012E193F093C
:10033000400B510B57FD08C0118233822282248367
:100340003583468357831DC081E0818333822282B7
:1003500088279927DC01821B930BA40BB50B8483A0
:100360009583A683B7830DC0220F331F441F551FEB
:1003700024833583468357838281938101979383B6
:1003800082832481358146815781DA01C901019731
:10039000A109B1098F5F9F4FAF4FBF4328F30BC037
:1003A000918333822282EA0CFB1C0C1D1D1DE4820A
:1003B000F5820683178383E080832481358146811B
:1003C000578157FF1AC0C901AA2797FDA095BA2FD8
:1003D00081709070A070B0705695479537952795AD
:1003E000822B932BA42BB52B84839583A683B78371
:1003F00082819381019693838283DF0101C0D201C0
:10040000CD01CDB7DEB7E2E10C940915A0E2B0E072
:10041000ECE0F2E00C94F91469837A838B839C837B
:100420002D833E834F835887E9E0EE2EF12CEC0EAE
:10043000FD1ECE010196B7010E9444078E010F5E9A
:100440001F4FCE010596B8010E9444078A8991E0AA
:1004500089278A8BC701B801AE01475E5F4F0E94B2
:10046000BA000E946F06A096E6E00C941515A0E273
:10047000B0E0EDE3F2E00C94F91469837A838B83A6
:100480009C832D833E834F835887F9E0EF2EF12C18
:10049000EC0EFD1ECE010196B7010E9444078E01AD
:1004A0000F5E1F4FCE010596B8010E944407C70199
:1004B000B801AE01475E5F4F0E94BA000E946F060E
:1004C000A096E6E00C941515A0E2B0E0EAE6F2E0B2
:1004D0000C94ED1469837A838B839C832D833E83F4
:1004E0004F835887CE010196BE01675F7F4F0E9400
:1004F0004407CE010596BE016F5E7F4F0E94440700
:100500009985923088F089898230C8F0943019F446
:10051000823051F404C0843029F4923081F48BE6A7
:1005200091E0C6C0923049F420E09A858A899813F8
:1005300021E02A87CE010996BBC0823049F420E031
:100540009A858A89981321E02A8BCE014196B0C002
:100550002D843E844F8458886D887E888F88988C3F
:10056000EE24FF248701AA24BB24650140E050E06B
:1005700060E070E0E0E0F0E0C10181709070892BF4
:10058000E9F0E60CF71C081D191D9A01AB012A0DB4
:100590003B1D4C1D5D1D80E090E0A0E0B0E0E61446
:1005A000F7040805190520F481E090E0A0E0B0E030
:1005B000BA01A901480F591F6A1F7B1FAA0CBB1C57
:1005C000CC1CDD1C97FE08C081E090E0A0E0B0E00C
:1005D000A82AB92ACA2ADB2A3196E032F10549F065
:1005E000660C771C881C991C569447943794279462
:1005F000C3CFFA85EA892B893C898B859C85280F96
:10060000391F2E5F3F4F17C0CA0181709070892B30
:1006100061F016950795F794E79480E090E0A0E0EC
:10062000B0E8E82AF92A0A2B1B2B7695679557958F
:1006300047952F5F3F4F77FDE7CF0CC0440F551F05
:10064000661F771F17FD4160EE0CFF1C001F111F76
:1006500021503040403090E0590790E0690790E425
:10066000790760F32B8F3C8FDB01CA018F77907085
:10067000A070B07080349105A105B10561F447FD0B
:100680000AC0E114F1040105110529F0405C5F4F37
:100690006F4F7F4F40781A8EFE1711F081E08A8FDE
:1006A0004D8F5E8F6F8F78A383E0898FCE0149963F
:1006B0000E946F06A096E2E10C940915A8E1B0E053
:1006C000E4E6F3E00C94F51469837A838B839C83CE
:1006D0002D833E834F835887B9E0EB2EF12CEC0E2F
:1006E000FD1ECE010196B7010E9444078E010F5EE8
:1006F0001F4FCE010596B8010E944407298522307C
:1007000008F47EC03989323010F4B8017CC08A8583
:100710009A8989278A87243011F0223031F42317EF
:1007200009F06EC06BE671E06EC0343039F41D869E
:100730001E861F86188A1C861B8604C0323021F450
:1007400084E08987B7015FC02B853C858B899C89B4
:10075000281B390B3C872B87ED84FE840F85188975
:10076000AD88BE88CF88D88CEA14FB040C051D0523
:1007700040F4EE0CFF1C001F111F215030403C873D
:100780002B8720E030E040E050E080E090E0A0E007
:10079000B0E460E070E0EA14FB040C051D0540F0D5
:1007A000282B392B4A2B5B2BEA18FB080C091D0957
:1007B000B695A79597958795EE0CFF1C001F111F06
:1007C0006F5F7F4F6F31710531F7DA01C9018F77A4
:1007D0009070A070B07080349105A105B10561F4EE
:1007E00027FD0AC0E114F1040105110529F0205C80
:1007F0003F4F4F4F5F4F20782D873E874F87588B55
:10080000BE01675F7F4FCB010E946F066896EAE0EA
:100810000C941115A8E1B0E0E0E1F4E00C94F914B7
:1008200069837A838B839C832D833E834F83588790
:1008300089E0E82EF12CEC0EFD1ECE010196B701E9
:100840000E9444078E010F5E1F4FCE010596B8012E
:100850000E9444078985823040F08989823028F0DF
:10086000C701B8010E94BC0701C08FEF6896E6E09F
:100870000C941515A8E1B0E0E0E4F4E00C94F91450
:1008800069837A838B839C832D833E834F83588730
:1008900089E0E82EF12CEC0EFD1ECE010196B70189
:1008A0000E9444078E010F5E1F4FCE010596B801CE
:1008B0000E9444078985823040F08989823028F07F
:1008C000C701B8010E94BC0701C08FEF6896E6E03F
:1008D0000C941515A8E1B0E0E0E7F4E00C94F914ED
:1008E00069837A838B839C832D833E834F835887D0
:1008F00089E0E82EF12CEC0EFD1ECE010196B70129
:100900000E9444078E010F5E1F4FCE010596B8016D
:100910000E9444078985823040F08989823028F01E
:10092000C701B8010E94BC0701C081E06896E6E0FB
:100930000C941515A8E1B0E0E0EAF4E00C94F91489
:1009400069837A838B839C832D833E834F8358876F
:1009500089E0E82EF12CEC0EFD1ECE010196B701C8
:100960000E9444078E010F5E1F4FCE010596B8010D
:100970000E9444078985823040F08989823028F0BE
:10098000C701B8010E94BC0701C081E06896E6E09B
:100990000C941515A8E1B0E0E0EDF4E00C94FD1422
:1009A00069837A838B839C832D833E834F8358870F
:1009B000CE010196BE01675F7F4F0E944407CE01C2
:1009C0000596BE016F5E7F4F0E9444078985823085
:1009D00028F020E030E08989823010F421E030E016
:1009E000822F6896E2E00C941915A8E0B0E0EBEFD6
:1009F000F4E00C94F6149B01AC0183E08983DA01E6
:100A0000C9018827B7FD83959927AA27BB27B82E48
:100A1000211531054105510519F482E089833AC059
:100A20008823A9F0203080E0380780E0480780E87C
:100A3000580729F460E070E080E09FEC30C0EE24BD
:100A4000FF248701E21AF30A040B150B02C0790197
:100A50008A018EE1C82ED12CDC82CB82ED82FE820F
:100A60000F831887C801B7010E9420060197181646
:100A7000190684F4082E04C0EE0CFF1C001F111F81
:100A80000A94D2F7ED82FE820F831887C81AD90A1A
:100A9000DC82CB82BA82CE0101960E946F06289634
:100AA000E9E00C941215ACE0B0E0E9E5F5E00C9457
:100AB000FD1469837A838B839C83CE010196BE01EA
:100AC0006B5F7F4F0E9444078D81823061F18230DD
:100AD00050F1843021F48E81882351F12EC02F8172
:100AE000388537FD20C06E812F3131051CF066231B
:100AF000F9F023C08EE190E0821B930B29853A85A3
:100B00004B855C8504C056954795379527958A9502
:100B1000D2F76623B1F050954095309521953F4F1F
:100B20004F4F5F4F0EC020E030E040E050E009C082
:100B30002FEF3FEF4FEF5FE704C020E030E040E0F1
:100B400050E8B901CA012C96E2E00C941915A8E00E
:100B5000B0E0EDEAF5E00C94F5147B018C01611531
:100B600071058105910519F482E0898360C083E0F5
:100B700089838EE1C82ED12CDC82CB82ED82FE826D
:100B80000F831887C801B7010E942006FC01319726
:100B9000F7FF3BC0222733272E1B3F0B570168016D
:100BA000022E04C0D694C794B794A7940A94D2F79F
:100BB00040E050E060E070E081E090E0A0E0B0E074
:100BC00004C0880F991FAA1FBB1F2A95D2F701974F
:100BD000A109B1098E219F21A023B1230097A1056E
:100BE000B10521F041E050E060E070E04A295B2966
:100BF0006C297D294D835E836F8378878EE190E039
:100C00008E1B9F0B9C838B8312C0309781F00E2E1E
:100C100004C0EE0CFF1C001F111F0A94D2F7ED82D6
:100C2000FE820F831887CE1ADF0ADC82CB821A82FB
:100C3000CE0101960E946F062896EAE00C941115E9
:100C4000EF92FF920F931F937B018C0180E0E816D7
:100C500080E0F80681E0080780E0180788F48FEF4D
:100C6000E816F1040105110531F028F088E090E064
:100C7000A0E0B0E017C080E090E0A0E0B0E012C0DB
:100C800080E0E81680E0F80680E0080781E01807B9
:100C900028F088E190E0A0E0B0E004C080E190E0BE
:100CA000A0E0B0E020E230E040E050E0281B390B4B
:100CB0004A0B5B0B04C016950795F794E7948A9549
:100CC000D2F7F701ED58FE4F8081281B3109410909
:100CD0005109C9011F910F91FF90EF900895DF9284
:100CE000EF92FF920F931F93FC01E480F580068141
:100CF0001781D1808081823048F480E090E0A0E1CB
:100D0000B0E0E82AF92A0A2B1B2BA5C0843009F48D
:100D10009FC0823021F4EE24FF24870105C0E11436
:100D2000F1040105110519F4E0E0F0E096C06281DC
:100D300073819FEF623879070CF05BC022E83FEFC8
:100D4000261B370B2A3131052CF020E030E040E043
:100D500050E02AC0B801A701022E04C0769567951D
:100D6000579547950A94D2F781E090E0A0E0B0E073
:100D700004C0880F991FAA1FBB1F2A95D2F701979D
:100D8000A109B1098E219F21A023B1230097A105BC
:100D9000B10521F081E090E0A0E0B0E09A01AB0164
:100DA000282B392B4A2B5B2BDA01C9018F779070E6
:100DB000A070B07080349105A105B10539F427FF0A
:100DC00009C0205C3F4F4F4F5F4F04C0215C3F4F35
:100DD0004F4F5F4FE0E0F0E02030A0E03A07A0E0A6
:100DE0004A07A0E45A0710F0E1E0F0E079018A0137
:100DF00027C06038710564F5FB01E158FF4FD80149
:100E0000C7018F779070A070B07080349105A105F4
:100E1000B10539F4E7FE0DC080E490E0A0E0B0E059
:100E200004C08FE390E0A0E0B0E0E80EF91E0A1FD6
:100E30001B1F17FF05C016950795F794E794319689
:100E400087E016950795F794E7948A95D1F705C042
:100E5000EE24FF248701EFEFF0E06E2F6795662701
:100E60006795902F9F77D794DD24D7948E2F869502
:100E7000492F462B582F5D29B701CA011F910F91A9
:100E8000FF90EF90DF900895FC01DB0140815181DC
:100E90002281622F6F7770E0221F2227221F938109
:100EA000892F880F822B282F30E0991F9927991FAF
:100EB00011969C93119721153105A9F541155105FE
:100EC0006105710511F482E037C082E89FEF139647
:100ED0009C938E9312979A01AB0167E0220F331F08
:100EE000441F551F6A95D1F783E08C930DC0220FE4
:100EF000331F441F551F12968D919C911397019794
:100F000013969C938E931297203080E0380780E0F0
:100F1000480780E4580758F314962D933D934D935A
:100F20005C93179708952F3F310579F441155105CA
:100F30006105710519F484E08C93089564FF03C082
:100F400081E08C9312C01C9210C02F573040139632
:100F50003C932E93129783E08C9387E0440F551FA8
:100F6000661F771F8A95D1F7706414964D935D9331
:100F70006D937C93179708951F93DC01FB019C915F
:100F8000923008F447C08081823008F443C0943026
:100F900051F411961C91843099F58181682F70E08D
:100FA000611B71093FC0843021F0923031F48230EE
:100FB000B9F18181882389F12DC011961C91119777
:100FC0008230F1F081811817D9F412962D913C915D
:100FD0001397828193818217930794F0281739071A
:100FE000BCF014968D919D910D90BC91A02D248103
:100FF000358146815781281739074A075B0718F45E
:10100000112341F00AC082179307A407B50740F4E3
:10101000112319F061E070E005C06FEF7FEF02C0AF
:1010200060E070E0CB011F9108950F931F938C0136
:10103000FC01868160E00E94791481E090E00E94CA
:10104000A613F801868161E00E94791481E090E0A6
:101050000E94A613F801868160E00E94791484E65C
:1010600090E00E94A6131F910F910895CF92DF92F6
:10107000EF92FF920F931F93CF93DF93D82EC92E39
:10108000282F392FC9018C01C0E0D0E0E62EFF24C3
:10109000F801878161E00E940D14B7010C2E02C097
:1010A000759567950A94E2F76170F80187810E944F
:1010B000791421960F5F1F4FC830D10549F78D2D48
:1010C0009C2D0E941508DF91CF911F910F91FF90E9
:1010D000EF90DF90CF900895CF92DF92EF92FF9242
:1010E0000F931F93CF93DF93D82EC92E282F392F1C
:1010F000C9018C01C0E0D0E0E62EFF24F801878111
:1011000061E00E940D14B7010C2E02C07595679521
:101110000A94E2F76170F80187810E9479142196A0
:101120000F5F1F4FC430D10549F78D2D9C2D0E94B4
:101130001508DF91CF911F910F91FF90EF90DF90F5
:10114000CF9008951F93CF93DF93EC01162F8C81DE
:10115000642F0E9479148D818F3F19F060E00E9406
:1011600079148F8584FF05C0CE01612F0E94360857
:101170000EC0612F70E084E0759567958A95E1F760
:10118000CE010E946C08CE01612F0E946C08DF9195
:10119000CF911F91089541E00E94A20881E090E064
:1011A000089540E00E94A2080895FC016089862FFE
:1011B0008460808B6C60CF010E94D1080895DF931A
:1011C000CF93CDB7DEB728970FB6F894DEBF0FBE2A
:1011D000CDBF9C01FE013196AEE8B2E088E00D90F3
:1011E00001928150E1F7F9018389481710F0482FE7
:1011F0004150E42FF0E0EE0FFF1FEC0FFD1F818147
:10120000680F6068C9010E94D10828960FB6F8944B
:10121000DEBF0FBECDBFCF91DF91089561E00E9488
:10122000D10880ED97E00E94A6130895CF93DF9335
:10123000EC01423018F08F8588608F874B8B1C8AB9
:10124000222329F0413019F48F8584608F8780E54F
:1012500093EC0E94A6138C8160E00E9479148E8129
:1012600060E00E9479148D818F3F19F060E00E9448
:1012700079146F8564FD1DC0CE0163E00E946C0887
:1012800084E991E10E94A613CE0163E00E946C08FC
:1012900084E991E10E94A613CE0163E00E946C08EC
:1012A00086E990E00E94A613CE0162E00E946C08DD
:1012B00016C06062CE010E94D10884E991E10E94CB
:1012C000A6136F856062CE010E94D10886E990E086
:1012D0000E94A6136F856062CE010E94D1086F85BF
:1012E0006062CE010E94D10884E0888BCE010E940A
:1012F000D508CE010E940E0982E0898BCE0166E0FE
:101300000E94D108DF91CF9108956F927F928F92C2
:10131000AF92CF92EF920F931F93DF93CF93CDB7FE
:10132000DEB73C01162F842FF30144832583068307
:10133000E782C086A18682869D8593879E85948755
:101340009F8595879889968761E00E940D14F30127
:1013500085818F3F19F061E00E940D14F3018681B1
:1013600061E00E940D14112319F0F301178603C0E8
:1013700080E1F3018787C30160E141E020E00E9442
:101380001609CF91DF911F910F91EF90CF90AF9001
:101390008F907F906F9008958F92AF92CF92EF923F
:1013A0000F931F93CF93DF93DC01362F542F722FAF
:1013B000102FAE2C8C2C13961C921E9212978AE83A
:1013C00092E011969C938E9300D000D0EDB7FEB7BB
:1013D0003196CDB7DEB71982118212821382CD0108
:1013E00061E0432F2FEF052FE72EC12E0E948509C4
:1013F0000F900F900F900F90DF91CF911F910F9151
:10140000EF90CF90AF908F9008952F923F924F9290
:101410005F926F927F928F929F92AF92BF92CF9284
:10142000DF92EF92FF920F931F93DF93CF9300D041
:1014300000D0CDB7DEB71C0149835A836B837C8310
:101440004801590126013701CB01BA0120E030E003
:1014500040E050E00E946A0487FD8CC0C501B401E1
:1014600020E030E040E050E00E946A0487FD82C046
:10147000C701B60120E030E040E050E00E946A047D
:1014800087FD78C089819A81AB81BC81F10180831D
:101490009183A283B383D10114968D929D92AD92D4
:1014A000BC921797C086D186E286F38664A575A59F
:1014B00086A597A50E94A70520E030E04AE754E4FE
:1014C0000E945E037B018C0189819A81AB81BC8182
:1014D000F10184879587A687B787C501B401A80164
:1014E00097010E9464025B016C01D10150966D93DB
:1014F0007D938D939C935397C301B201A8019701EB
:101500000E945E037B018C01F101648B758B868BDD
:10151000978B808D918D019769F560E070E080E098
:1015200090E029813A814B815C810E940602D101C1
:101530001C966D937D938D939C931F9760E070E054
:1015400080E090E0A60195010E940602F101608B07
:10155000718B828B938B60E070E080E090E0A8015B
:1015600097010E940602D10154966D937D938D934D
:101570009C9357970F900F900F900F90CF91DF9102
:101580001F910F91FF90EF90DF90CF90BF90AF90A1
:101590009F908F907F906F905F904F903F902F9093
:1015A00008954F925F926F927F928F929F92AF9227
:1015B000BF92CF92DF92EF92FF920F931F93CF9340
:1015C000DF93EC013A014B0178018901CB01BA01AB
:1015D000A80197010E943A0487FF4EC068AA79AA21
:1015E0008AAA9BAAECAAFDAA0EAB1FAB88AD8823E2
:1015F00009F442C04C8C5D8CF201A080B180C280A5
:10160000D380C601B501A80197010E940A041816EB
:1016100034F4F201E082F182028313830DC0C6012B
:10162000B501A40193010E946A0488232CF4F201FD
:101630006082718282829382ACA0BDA0CEA0DFA026
:10164000ECA8FDA80EA91FA9C601B501A801970124
:101650000E940A04181664F0E8A8F9A80AA91BA9B0
:10166000C601B501A80197010E946A04882324F4E9
:10167000ECA2FDA20EA31FA3DF91CF911F910F91AA
:10168000FF90EF90DF90CF90BF90AF909F908F90A2
:101690007F906F905F904F900895AF92BF92CF92DE
:1016A000DF92EF92FF920F931F93CF93DF93EC01A2
:1016B000EC8DFD8DE080F18002811381ECA2FDA212
:1016C0000EA31FA3EA8DFB8D80819181A281B3813E
:1016D00088A799A7AAA7BBA7ACA8BDA8CEA8DFA832
:1016E000C801B701A60195010E940A04181664F00A
:1016F000A8A8B9A8CAA8DBA8C801B701A601950186
:101700000E946A04882324F4ACA2BDA2CEA2DFA268
:10171000DF91CF911F910F91FF90EF90DF90CF90CD
:10172000BF90AF9008951F93CF93DF93EC0110E02B
:101730006130710509F411E088AD91E0892718172F
:1017400019F4CE010E944D0B18AFDF91CF911F917C
:1017500008950F931F93CF93DF93EC018B0188AD16
:10176000882379F1888D998D6817790751F160E0A8
:1017700070E080E090E02C853D854E855F850E947D
:1017800006026C877D878E879F8760E070E080E02F
:1017900090E0288939894A895B890E940602688B12
:1017A000798B8A8B9B8B60E070E080E090E02C89E5
:1017B0003D894E895F890E9406026C8B7D8B8E8BE2
:1017C0009F8B198F088FDF91CF911F910F910895F3
:1017D0002F923F924F925F926F927F928F929F9241
:1017E000AF92BF92CF92DF92EF92FF920F931F932F
:1017F000DF93CF9300D000D000D0CDB7DEB79E836B
:101800008D83DC01D8968C91882309F4E5C00E9471
:101810004C1369837A838B839C83ED81FE8180A145
:1018200091A1A2A1B3A129813A814B815C81281B9E
:10183000390B4A0B5B0B84A595A5A6A5B7A5281760
:1018400039074A075B0708F4C7C0028CF38DE02D07
:101850002080318042805380AD81BE815E96ED91C3
:10186000FC915F976081718182819381A2019101D6
:101870000E9406023B014C01ED81FE8120893189E5
:10188000428953890E946402AD81BE8194962D9154
:101890003D914D915C9197970E9437027B018C019D
:1018A000ED81FE8164A375A386A397A3A4A8B5A820
:1018B000C6A8D7A8A60195010E940A04181674F0BC
:1018C000ED81FE81A0A8B1A8C2A8D3A8C801B70124
:1018D000A60195010E946A04882344F4AD81BE816B
:1018E0009496AD92BD92CD92DC929797C401B301CC
:1018F000ED81FE8124853585468557850E946402E9
:10190000AD81BE8194962D913D914D915C919797BB
:101910000E9437027B018C01C201B101ED81FE8181
:1019200020A531A542A553A50E940602AD81BE8126
:1019300054962D913D914D915C9157970E94640270
:101940009B01AC01C801B7010E9406027B018C011A
:10195000ED81FE81D4A8C5A8B6A8A7A82D2D3C2D41
:101960004B2D5A2D0E940A041816BCF0AD81BE8181
:10197000D096DC90D097D196CC90D197D296BC904F
:10198000D297D396AC90C801B7012D2D3C2D4B2D8D
:101990005A2D0E946A04882334F48D2D9C2DAB2D82
:1019A000BA2D7C018D01AD81BE815C96ED91FC91DB
:1019B0005D97E082F18202831383FD0120A631A6A8
:1019C00042A653A689819A81AB81BC8180A391A351
:1019D000A2A3B3A381E001C080E026960FB6F894DD
:1019E000DEBF0FBECDBFCF91DF911F910F91FF9052
:1019F000EF90DF90CF90BF90AF909F908F907F90AF
:101A00006F905F904F903F902F9008954F925F920C
:101A10006F927F928F929F92AF92BF92CF92DF92FE
:101A2000EF92FF920F931F93DF93CF93CDB7DEB763
:101A30004C0127013801FC01558F448F738F628F51
:101A4000378F268F10AE40E050E060E070E000E09D
:101A500010E02FE733E40E94D10A84E690E0A0E092
:101A6000B0E0F40184A795A7A6A7B7A7C4016F8922
:101A7000788D0E94A90BC401B301A20196018501D2
:101A8000CB88DC88ED88FE880E94050A0E944C13F2
:101A9000F40124A535A546A557A5621B730B840B3D
:101AA000950B60A371A382A393A3CF91DF911F91A4
:101AB0000F91FF90EF90DF90CF90BF90AF909F90ED
:101AC0008F907F906F905F904F900895219A229A07
:101AD00029982A9882EA8093800089E18093810086
:101AE00084EC99E09093870080938600109289009F
:101AF0001092880010928B0010928A000895109224
:101B000089001092880010928B0010928A0082E067
:101B10008093800088E18093810029982A98089515
:101B200083E08093B0008AE08093B10088EC8093DA
:101B3000B30082E0809370005B98089583E0809307
:101B4000B00088E08093B10088EC8093B30082E01D
:101B5000809370005A98089534990CC080E49CE9F1
:101B60000197F1F7349BFECF80E49CE90197F1F7F0
:101B700081E0089533990CC080E49CE90197F1F766
:101B8000339BFECF80E49CE90197F1F78FEF089536
:101B9000359B02C082E0089580E49CE90197F1F74B
:101BA000359BFECF80E49CE90197F1F780E0089532
:101BB0001F920F920FB60F9211240F900FBE0F902D
:101BC0001F9018951F920F920FB60F9211242F930A
:101BD0008F939F938091BC029091BD0229E0843C39
:101BE000920749F41092BD021092BC028BB194E0AE
:101BF00089278BB905C001969093BD028093BC02E2
:101C00009F918F912F910F900FBE0F901F9018955D
:101C1000AF92BF92CF92DF92EF92FF920F931F93FA
:101C200086E992E068E047E026E005E055E1E52E30
:101C300034E1C32E0E94CC0900D000D000D0E09047
:101C40007502F09076020091770210917802A090D0
:101C50007902B0907A02C0907B02D0907C02809191
:101C6000CA029091CB02A091CC02B091CD02EDB707
:101C7000FEB781839283A383B483168215828EEC90
:101C800092E062EC72E046EC52E02EEB32E00E9411
:101C9000060DE0907D02F0907E0200917F0210918F
:101CA0008002A0908102B0908202C0908302D09006
:101CB00084028091130390911403A0911503B091B5
:101CC0001603EDB7FEB781839283A383B483168294
:101CD000158287E193E06BE073E04FE053E027E08B
:101CE00033E00E94060D8DB79EB706960FB6F894A6
:101CF0009EBF0FBE8DBF1F910F91FF90EF90DF90A1
:101D0000CF90BF90AF90089581E00E94EB13AA2777
:101D100097FDA095BA2FBC01CD010E94F50408954E
:101D20000E94840E20E030E04AE754E40E940A0456
:101D30009091BB021816F4F49923C1F586E992E05C
:101D40006DE040E00E94DF0886E992E060E071E02B
:101D50000E940E1286E992E060E041E00E94DF08F6
:101D600086E992E064E071E00E940E1281E08093C7
:101D7000BB0208959923D1F086E992E06DE040E03E
:101D80000E94DF0886E992E064E171E00E940E1291
:101D900086E992E060E041E00E94DF0886E992E097
:101DA00068E171E00E940E121092BB02089587E074
:101DB0000E94EB13AA2797FDA095BA2FBC01CD0175
:101DC0000E94F504089582E00E94EB139C01220F0B
:101DD000331F220F331F280F391F442737FD40952B
:101DE000542FCA01B9010E94F50420E030EC4FE7FE
:101DF00054E40E945E032DEC3CEC4CED50E40E9458
:101E00005E0320E030E04AE754E40E946402089553
:101E100080E00E94EB139C01220F331F220F331F1F
:101E2000280F391F442737FD4095542FCA01B901A7
:101E30000E94F50420E030EC4FE754E40E945E037A
:101E40002DEC3CEC4CED50E40E945E0320E030E0D1
:101E50004AE754E40E9464020895EF92FF920F93C0
:101E60001F9306E912E0C80163E040E00E94DF082A
:101E7000C80168E271E00E940E120E94080FAB01D7
:101E8000BC014093AB025093AC026093AD027093DF
:101E9000AE02C80122E030E00E94F512FBE2EF2E14
:101EA000F1E0FF2EC801B7010E940E12C8016AE0DE
:101EB00040E00E94DF08C8016EE271E00E940E124D
:101EC0000E94E30E6093AF027093B0028093B10260
:101ED0009093B2020E9453059B01AC01C801B90165
:101EE0004AE050E00E94FB11C801B7010E940E12A7
:101EF000C80163E041E00E94DF08C80162E371E0CD
:101F00000E940E120E94D70E6093B3027093B40227
:101F10008093B5029093B6020E9453059B01AC01D9
:101F2000C801B9014AE050E00E94FB11E4E1EE2E45
:101F3000E1E0FE2EC801B7010E940E12C8016AE05E
:101F400041E00E94DF08C80165E371E00E940E12C3
:101F50000E94840E6093B7027093B8028093B90216
:101F60009093BA020E9453059B01AC01C801B901CC
:101F70004AE050E00E94FB11C801B7010E940E1216
:101F800064E670E080E090E00E9480131F910F9162
:101F9000FF90EF900895DF92EF92FF920F931F93BF
:101FA000CF93DF930E94B01386E992E060E142E0B4
:101FB00020E00E94160987B117B88AB18C608AB9EF
:101FC0000E94840E6093C2027093C3028093C40285
:101FD0009093C50280E090E0AEE3B4E48093BE024B
:101FE0009093BF02A093C002B093C1028EEC92E026
:101FF00061E070E00E94930B0E94840E60930B03DB
:1020000070930C0380930D0390930E0380E090E097
:10201000A0E0B0E08093070390930803A093090326
:10202000B0930A0387E193E061E070E00E94930BB4
:10203000B8E0DB2EC3E0D0E0A1E0EA2EF12C02E014
:1020400010E00E94900E8091730290917402813092
:10205000910579F1823091051CF4892B41F0F1CF83
:102060008230910509F44EC0039759F7A0C00E9431
:10207000AC0D882331F78091BB02882399F4F0924C
:102080007402E092730286E992E00E940E0986E9EA
:1020900092E060E040E00E94DF0886E992E068E3B9
:1020A00071E0ADC0D0937402C09373021092BB0272
:1020B000C8CF68EE73E080E090E00E9480130E9439
:1020C000660D0E949E0D109374020093730286E9C0
:1020D00092E00E940E0986E992E060E040E00E94F2
:1020E000DF0886E992E065E471E00E940E1286E95D
:1020F00092E060E041E00E94DF0886E992E068E457
:1021000071E07DC08BB18D258BB90E94840E6093E8
:10211000C2027093C3028093C4029093C5028EECF6
:1021200092E00E94E80B6091C6027091C702809114
:10213000C8029091C9020E948E0070938B00609338
:102140008A000E942D0F0E94AC0D882331F081304F
:10215000B9F08F3F09F075CF19C0D0937402C093C6
:10216000730286E992E00E940E0986E992E060E03F
:1021700040E00E94DF0886E992E06BE471E03FC036
:10218000809188009091890005960CC0809188000C
:1021900090918900892B09F454CF80918800909107
:1021A0008900059790938900809388004ACF0E9408
:1021B0007F0D68EE73E080E090E00E9480130E9443
:1021C000900D109274021092730286E992E00E94C0
:1021D0000E0986E992E060E040E00E94DF0886E9AF
:1021E00092E060E571E00E940E1286E992E06CE0F8
:1021F00041E00E94DF0886E992E068E571E00E9414
:102200000E121FCFCF92DF92EF92FF920F931F9388
:10221000CF93DF937C016B018A01C0E0D0E00FC057
:10222000D6016D916D01D701ED91FC910190F08186
:10223000E02DC7010995C80FD91F015010400115A5
:10224000110571F7CE01DF91CF911F910F91FF9092
:10225000EF90DF90CF900895CF93DF93EC0161155D
:10226000710519F420E030E00FC0DB010D90002073
:10227000E9F71197A61BB70BE881F9810280F3817A
:10228000E02DAD0109959C01C901DF91CF91089521
:102290004F925F927F928F929F92AF92BF92CF9216
:1022A000DF92EF92FF920F931F93DF93CF93CDB7FF
:1022B000DEB7A1970FB6F894DEBF0FBECDBF2C01DD
:1022C000742ECB01223008F42AE019A231E2C32E89
:1022D000D12CCC0EDD1E822E9924AA24BB24672D7E
:1022E000752FA50194010E94CB1479018A01C801C0
:1022F000B701A50194010E94AC14472D461B089418
:10230000C108D1084A3014F4405D01C0495CF601AF
:102310004083E114F1040105110521F07E2C5F2DAD
:10232000C801DDCFC201B6010E942C11A1960FB6E3
:10233000F894DEBF0FBECDBFCF91DF911F910F91FB
:10234000FF90EF90DF90CF90BF90AF909F908F90D5
:102350007F905F904F900895DC012115310541F485
:10236000ED91FC910190F081E02D642F0995089585
:102370000E9448110895CF92DF92EF92FF920F933F
:102380001F93CF93DF93EC016A017B012115310587
:1023900041F4E881F9810190F081E02D642F0995E5
:1023A0001FC02A303105D1F477FF17C0E881F981C9
:1023B0000190F081E02D6DE209958C0144275527AD
:1023C000BA014C195D096E097F09CE012AE00E940D
:1023D00048119801280F391F04C02AE00E944811B3
:1023E0009C01C901DF91CF911F910F91FF90EF9058
:1023F000DF90CF900895EF92FF920F931F937B0190
:102400009A010027F7FC0095102FB801A7010E9440
:10241000BB111F910F91FF90EF9008950E942C1116
:1024200008957F928F929F92AF92BF92CF92DF9248
:10243000EF92FF920F931F93CF93DF934C017A019A
:102440008B01722ECB01BA01A80197010E94CA0428
:10245000882321F0C4016DE571E021C0C0E0D0E027
:1024600057016801E894D7F8C601B5012FEF3FEF97
:102470004FE75FE70E94CA04882351F4C601B50103
:102480002FEF3FEF4FE75FE70E949A04181614F012
:10249000C1E0D0E0219739F0C40161E671E00E940B
:1024A0002C11EC0193C0C801B7012FEF3FEF4FE7AC
:1024B0005FE40E940A04181654F0C801B7012FEF18
:1024C0003FEF4FE75FEC0E946A04882324F4C401C5
:1024D00065E671E0E4CFC801B70120E030E040E0FC
:1024E00050E00E946A0487FD03C0C0E0D0E00EC047
:1024F000D401ED91FC910190F081E02DC4016DE2D9
:102500000995EC0117FB109517F9109520E030E0C4
:1025100040E05FE3DD240BC0CA01B90120E030E0F8
:1025200040E251E40E945E039B01AC01D394D714B6
:1025300098F3C801B7010E9437025B016C010E9449
:102540008E007B018C01C401B801A7012AE030E0B4
:102550000E94AC11C80FD91F772039F0C40169E679
:1025600071E00E942C11C80FD91FC801B7010E9449
:10257000A7059B01AC01C601B5010E94060224C05B
:1025800020E030E040E251E40E9464027B018C01D3
:102590000E9453055B016C01CC24B7FCC094DC2C79
:1025A000C401B601A5012AE030E00E94BB11C80FAA
:1025B000D91FC601B5010E94F5049B01AC01C801F9
:1025C000B7010E9406027A947720D1F6CE01DF91FE
:1025D000CF911F910F91FF90EF90DF90CF90BF9020
:1025E000AF909F908F907F9008950E941112089550
:1025F0001F920F920FB60F9211242F933F934F9378
:102600005F936F937F938F939F93AF93BF9320912B
:1026100054033091550340915603509157037091E4
:102620005803DA01C9010296A11DB11D672F6A5F27
:102630006D3730F06D57DA01C9010396A11DB11D48
:10264000609358038093540390935503A0935603CB
:10265000B09357038091500390915103A09152037E
:10266000B09153030196A11DB11D80935003909327
:102670005103A0935203B0935303BF91AF919F9125
:102680008F917F916F915F914F913F912F910F901B
:102690000FBE0F901F9018958FB7F8942091540398
:1026A0003091550340915603509157038FBFB901A4
:1026B000CA0108959FB7F8942091500330915103B7
:1026C000409152035091530386B5A89B06C08F3F9B
:1026D00021F02F5F3F4F4F4F5F4F9FBF542F432F2E
:1026E000322F2227280F311D411D511D83E0220F5B
:1026F000331F441F551F8A95D1F7B901CA010895A8
:10270000EF92FF920F931F93CF93DF937B018C0186
:102710000E945A13EB010EC00E945A136C1B7D0BD2
:10272000685E7340C8F30894E108F10801091109D3
:10273000C851DC4FE114F1040105110569F7DF917F
:10274000CF911F910F91FF90EF900895019739F06D
:10275000019729F0880F991F01970197F1F70895C4
:10276000789484B5826084BD84B5816084BD85B56C
:10277000826085BD85B5816085BDEEE6F0E0808133
:1027800081608083E1E8F0E0108280818260808354
:10279000808181608083E0E8F0E0808181608083D7
:1027A000E1EBF0E0808184608083E0EBF0E0808109
:1027B00081608083EAE7F0E08081846080838081AB
:1027C0008260808380818160808380818068808353
:1027D0001092C1000895982F8E3008F09E50977087
:1027E000809185028295880F880F807C892B809349
:1027F0007C0080917A00806480937A0080917A00D6
:1028000086FDFCCF2091780040917900942F80E0E4
:1028100030E0282B392BC9010895CF93DF93482F3F
:1028200050E0CA0184569F4FFC0134914A575F4FD4
:10283000FA018491882369F190E0880F991FFC01C7
:10284000E859FF4FA591B491FC01EE58FF4FC59197
:10285000D491662351F42FB7F8948C91932F9095CF
:1028600089238C93888189230BC0623061F42FB750
:10287000F8948C91932F909589238C938881832B46
:1028800088832FBF06C09FB7F8948C91832B8C93BD
:102890009FBFDF91CF910895833071F0843028F489
:1028A0008130A1F0823021F514C08630B1F087303C
:1028B000D1F08430E9F404C0809180008F7703C0A8
:1028C000809180008F7D80938000089584B58F77FC
:1028D00002C084B58F7D84BD08958091B0008F774C
:1028E0008093B00008958091B0008F7D8093B000F8
:1028F0000895FF920F931F93F62E482F50E0CA01C0
:102900008E549F4FFC012491CA0184569F4FFC01B5
:1029100014914A575F4FFA0104910023C9F0222312
:1029200019F0822F0E944C14E02FF0E0EE0FFF1FF1
:10293000EE58FF4FA591B4919FB7F894FF2021F472
:102940008C911095812302C08C91812B8C939FBF19
:102950001F910F91FF900895629FD001739FF00126
:10296000829FE00DF11D649FE00DF11D929FF00D1F
:10297000839FF00D749FF00D659FF00D9927729F56
:10298000B00DE11DF91F639FB00DE11DF91FBD01E1
:10299000CF0111240895A1E21A2EAA1BBB1BFD0131
:1029A0000DC0AA1FBB1FEE1FFF1FA217B307E4072E
:1029B000F50720F0A21BB30BE40BF50B661F771F86
:1029C000881F991F1A9469F7609570958095909566
:1029D0009B01AC01BD01CF0108952F923F924F9210
:1029E0005F926F927F928F929F92AF92BF92CF929F
:1029F000DF92EF92FF920F931F93CF93DF93CDB7A8
:102A0000DEB7CA1BDB0B0FB6F894DEBF0FBECDBF1F
:102A100009942A88398848885F846E847D848C84F0
:102A20009B84AA84B984C884DF80EE80FD800C81F9
:102A30001B81AA81B981CE0FD11D0FB6F894DEBFDC
:102A40000FBECDBFED010895EE0FFF1F0590F4916D
:082A5000E02D0994F894FFCF7A
:102A5800343034004C61736572204E6F7420466FB9
:102A6800756E6400202020002020202020202020B7
:102A7800202020202020200049200020200049700C
:102A88002000502000542000494E495449414C49E7
:102A98005A494E47004F7C004E7C0053544F50001B
:102AA8005354414E4442590076312E30006E616EC7
:102AB80000696E66006F7666002E00000000000058
:102AC80000000000010202030303030404040404D9
:102AD80004040405050505050505050505050505A1
:102AE8000505050606060606060606060606060681
:102AF800060606060606060606060606060606066E
:102B08000606060707070707070707070707070750
:102B1800070707070707070707070707070707073D
:102B2800070707070707070707070707070707072D
:102B3800070707070707070707070707070707071D
:102B48000707070808080808080808080808080800
:102B580008080808080808080808080808080808ED
:102B680008080808080808080808080808080808DD
:102B780008080808080808080808080808080808CD
:102B880008080808080808080808080808080808BD
:102B980008080808080808080808080808080808AD
:102BA800080808080808080808080808080808089D
:102BB800080808080808080808080808080808088D
:102BC80008080803000000F041000020410000F060
:102BD80041000020410100000000CB080211000064
:062BE8004000140054003F
:00000001FF
