:100000000C9464000C948C000C948C000C948C0068
:100010000C948C000C948C000C948C000C94E20DCD
:100020000C94D80D0C948C000C948C000C948C00C7
:100030000C948C000C948C000C948C000C948C0010
:100040000C94A6120C948C000C948C000C948C00D4
:100050000C948C000C948C000C948C000C948C00F0
:100060000C948C000C948C000000000024002700ED
:100070002A0000000000250028002B0000000000DE
:1000800023002600290004040404040404040202DA
:100090000202020203030303030302020102040833
:1000A00010204080010204081020010204081020E2
:1000B0004080000000070002010000030406000069
:1000C000000000000000080E11241FBECFEFD4E096
:1000D000DEBFCDBF12E0A0E0B1E0E4EBF9E202C088
:1000E00005900D92AA38B107D9F713E0AAE8B2E05B
:1000F00001C01D92A430B107E1F710E0C8ECD0E0D8
:1001000004C02297FE010E94D414C63CD107C9F74F
:100110000E94A10F0C94D8140C940000EF92FF924F
:100120000F931F937B018C0120E030E040E05FE4FF
:100130000E943A0488238CF0C801B70120E030E027
:1001400040E05FE40E9406020E9453059B01AC015F
:10015000205030404040504806C0C801B7010E94BE
:1001600053059B01AC01B901CA011F910F91FF908A
:10017000EF900895A0E0B0E0E0ECF0E00C949B1468
:10018000DC012B01FA019C91923008F439C1EB019A
:100190008881823008F433C1943069F4843009F0E6
:1001A0002FC111969C9111978981981709F428C144
:1001B000A6E6B1E025C1843009F421C18230A9F45A
:1001C000923009F01DC19A01AD0188E0EA01099061
:1001D000AE01E90109929E018150C1F7E2018981D6
:1001E00011969C918923818308C1923009F407C13B
:1001F00012962D903C901397EB018A819B81149667
:10020000AD90BD90CD90DC901797EC80FD800E8175
:100210001F819101281B390BB90137FF04C06627E4
:100220007727621B730B603271050CF061C01216E8
:1002300013066CF537014801062E04C09694879486
:10024000779467940A94D2F721E030E040E050E0E0
:1002500004C0220F331F441F551F6A95D2F7215047
:100260003040404050402E213F2140235123211552
:1002700031054105510521F021E030E040E050E03A
:1002800079018A01E628F728082919293CC0232B7F
:10029000D1F1260E371E35014601062E04C0969474
:1002A0008794779467940A94D2F721E030E040E095
:1002B00050E004C0220F331F441F551F6A95D2F728
:1002C00021503040404050402A213B214C215D21AB
:1002D000211531054105510521F021E030E040E0D4
:1002E00050E059016A01A628B728C828D9280BC0B0
:1002F000821593052CF01C01AA24BB24650103C0C0
:10030000EE24FF24870111969C91D20111968C91C5
:10031000981709F445C0992339F0A80197012A19C3
:100320003B094C095D0906C0A60195012E193F093C
:10033000400B510B57FD08C0118233822282248367
:100340003583468357831DC081E0818333822282B7
:1003500088279927DC01821B930BA40BB50B8483A0
:100360009583A683B7830DC0220F331F441F551FEB
:1003700024833583468357838281938101979383B6
:1003800082832481358146815781DA01C901019731
:10039000A109B1098F5F9F4FAF4FBF4328F30BC037
:1003A000918333822282EA0CFB1C0C1D1D1DE4820A
:1003B000F5820683178383E080832481358146811B
:1003C000578157FF1AC0C901AA2797FDA095BA2FD8
:1003D00081709070A070B0705695479537952795AD
:1003E000822B932BA42BB52B84839583A683B78371
:1003F00082819381019693838283DF0101C0D201C0
:10040000CD01CDB7DEB7E2E10C94B714A0E2B0E0C5
:10041000ECE0F2E00C94A71469837A838B839C83CD
:100420002D833E834F835887E9E0EE2EF12CEC0EAE
:10043000FD1ECE010196B7010E9444078E010F5E9A
:100440001F4FCE010596B8010E9444078A8991E0AA
:1004500089278A8BC701B801AE01475E5F4F0E94B2
:10046000BA000E946F06A096E6E00C94C314A0E2C6
:10047000B0E0EDE3F2E00C94A71469837A838B83F8
:100480009C832D833E834F835887F9E0EF2EF12C18
:10049000EC0EFD1ECE010196B7010E9444078E01AD
:1004A0000F5E1F4FCE010596B8010E944407C70199
:1004B000B801AE01475E5F4F0E94BA000E946F060E
:1004C000A096E6E00C94C314A0E2B0E0EAE6F2E005
:1004D0000C949B1469837A838B839C832D833E8346
:1004E0004F835887CE010196BE01675F7F4F0E9400
:1004F0004407CE010596BE016F5E7F4F0E94440700
:100500009985923088F089898230C8F0943019F446
:10051000823051F404C0843029F4923081F486E6AC
:1005200091E0C6C0923049F420E09A858A899813F8
:1005300021E02A87CE010996BBC0823049F420E031
:100540009A858A89981321E02A8BCE014196B0C002
:100550002D843E844F8458886D887E888F88988C3F
:10056000EE24FF248701AA24BB24650140E050E06B
:1005700060E070E0E0E0F0E0C10181709070892BF4
:10058000E9F0E60CF71C081D191D9A01AB012A0DB4
:100590003B1D4C1D5D1D80E090E0A0E0B0E0E61446
:1005A000F7040805190520F481E090E0A0E0B0E030
:1005B000BA01A901480F591F6A1F7B1FAA0CBB1C57
:1005C000CC1CDD1C97FE08C081E090E0A0E0B0E00C
:1005D000A82AB92ACA2ADB2A3196E032F10549F065
:1005E000660C771C881C991C569447943794279462
:1005F000C3CFFA85EA892B893C898B859C85280F96
:10060000391F2E5F3F4F17C0CA0181709070892B30
:1006100061F016950795F794E79480E090E0A0E0EC
:10062000B0E8E82AF92A0A2B1B2B7695679557958F
:1006300047952F5F3F4F77FDE7CF0CC0440F551F05
:10064000661F771F17FD4160EE0CFF1C001F111F76
:1006500021503040403090E0590790E0690790E425
:10066000790760F32B8F3C8FDB01CA018F77907085
:10067000A070B07080349105A105B10561F447FD0B
:100680000AC0E114F1040105110529F0405C5F4F37
:100690006F4F7F4F40781A8EFE1711F081E08A8FDE
:1006A0004D8F5E8F6F8F78A383E0898FCE0149963F
:1006B0000E946F06A096E2E10C94B714A8E1B0E0A6
:1006C000E4E6F3E00C94A31469837A838B839C8320
:1006D0002D833E834F835887B9E0EB2EF12CEC0E2F
:1006E000FD1ECE010196B7010E9444078E010F5EE8
:1006F0001F4FCE010596B8010E944407298522307C
:1007000008F47EC03989323010F4B8017CC08A8583
:100710009A8989278A87243011F0223031F42317EF
:1007200009F06EC066E671E06EC0343039F41D86A3
:100730001E861F86188A1C861B8604C0323021F450
:1007400084E08987B7015FC02B853C858B899C89B4
:10075000281B390B3C872B87ED84FE840F85188975
:10076000AD88BE88CF88D88CEA14FB040C051D0523
:1007700040F4EE0CFF1C001F111F215030403C873D
:100780002B8720E030E040E050E080E090E0A0E007
:10079000B0E460E070E0EA14FB040C051D0540F0D5
:1007A000282B392B4A2B5B2BEA18FB080C091D0957
:1007B000B695A79597958795EE0CFF1C001F111F06
:1007C0006F5F7F4F6F31710531F7DA01C9018F77A4
:1007D0009070A070B07080349105A105B10561F4EE
:1007E00027FD0AC0E114F1040105110529F0205C80
:1007F0003F4F4F4F5F4F20782D873E874F87588B55
:10080000BE01675F7F4FCB010E946F066896EAE0EA
:100810000C94BF14A8E1B0E0E0E1F4E00C94A7145C
:1008200069837A838B839C832D833E834F83588790
:1008300089E0E82EF12CEC0EFD1ECE010196B701E9
:100840000E9444078E010F5E1F4FCE010596B8012E
:100850000E9444078985823040F08989823028F0DF
:10086000C701B8010E94BC0701C08FEF6896E6E09F
:100870000C94C314A8E1B0E0E0E4F4E00C94A714F5
:1008800069837A838B839C832D833E834F83588730
:1008900089E0E82EF12CEC0EFD1ECE010196B70189
:1008A0000E9444078E010F5E1F4FCE010596B801CE
:1008B0000E9444078985823040F08989823028F07F
:1008C000C701B8010E94BC0701C08FEF6896E6E03F
:1008D0000C94C314A8E1B0E0E0E7F4E00C94A71492
:1008E00069837A838B839C832D833E834F835887D0
:1008F00089E0E82EF12CEC0EFD1ECE010196B70129
:100900000E9444078E010F5E1F4FCE010596B8016D
:100910000E9444078985823040F08989823028F01E
:10092000C701B8010E94BC0701C081E06896E6E0FB
:100930000C94C314A8E1B0E0E0EAF4E00C94A7142E
:1009400069837A838B839C832D833E834F8358876F
:1009500089E0E82EF12CEC0EFD1ECE010196B701C8
:100960000E9444078E010F5E1F4FCE010596B8010D
:100970000E9444078985823040F08989823028F0BE
:10098000C701B8010E94BC0701C081E06896E6E09B
:100990000C94C314A8E1B0E0E0EDF4E00C94AB14C7
:1009A00069837A838B839C832D833E834F8358870F
:1009B000CE010196BE01675F7F4F0E944407CE01C2
:1009C0000596BE016F5E7F4F0E9444078985823085
:1009D00028F020E030E08989823010F421E030E016
:1009E000822F6896E2E00C94C714A8E0B0E0EBEF29
:1009F000F4E00C94A4149B01AC0183E08983DA0138
:100A0000C9018827B7FD83959927AA27BB27B82E48
:100A1000211531054105510519F482E089833AC059
:100A20008823A9F0203080E0380780E0480780E87C
:100A3000580729F460E070E080E09FEC30C0EE24BD
:100A4000FF248701E21AF30A040B150B02C0790197
:100A50008A018EE1C82ED12CDC82CB82ED82FE820F
:100A60000F831887C801B7010E9420060197181646
:100A7000190684F4082E04C0EE0CFF1C001F111F81
:100A80000A94D2F7ED82FE820F831887C81AD90A1A
:100A9000DC82CB82BA82CE0101960E946F06289634
:100AA000E9E00C94C014ACE0B0E0E9E5F5E00C94AA
:100AB000AB1469837A838B839C83CE010196BE013C
:100AC0006B5F7F4F0E9444078D81823061F18230DD
:100AD00050F1843021F48E81882351F12EC02F8172
:100AE000388537FD20C06E812F3131051CF066231B
:100AF000F9F023C08EE190E0821B930B29853A85A3
:100B00004B855C8504C056954795379527958A9502
:100B1000D2F76623B1F050954095309521953F4F1F
:100B20004F4F5F4F0EC020E030E040E050E009C082
:100B30002FEF3FEF4FEF5FE704C020E030E040E0F1
:100B400050E8B901CA012C96E2E00C94C714A8E061
:100B5000B0E0EDEAF5E00C94A3147B018C01611583
:100B600071058105910519F482E0898360C083E0F5
:100B700089838EE1C82ED12CDC82CB82ED82FE826D
:100B80000F831887C801B7010E942006FC01319726
:100B9000F7FF3BC0222733272E1B3F0B570168016D
:100BA000022E04C0D694C794B794A7940A94D2F79F
:100BB00040E050E060E070E081E090E0A0E0B0E074
:100BC00004C0880F991FAA1FBB1F2A95D2F701974F
:100BD000A109B1098E219F21A023B1230097A1056E
:100BE000B10521F041E050E060E070E04A295B2966
:100BF0006C297D294D835E836F8378878EE190E039
:100C00008E1B9F0B9C838B8312C0309781F00E2E1E
:100C100004C0EE0CFF1C001F111F0A94D2F7ED82D6
:100C2000FE820F831887CE1ADF0ADC82CB821A82FB
:100C3000CE0101960E946F062896EAE00C94BF143C
:100C4000EF92FF920F931F937B018C0180E0E816D7
:100C500080E0F80681E0080780E0180788F48FEF4D
:100C6000E816F1040105110531F028F088E090E064
:100C7000A0E0B0E017C080E090E0A0E0B0E012C0DB
:100C800080E0E81680E0F80680E0080781E01807B9
:100C900028F088E190E0A0E0B0E004C080E190E0BE
:100CA000A0E0B0E020E230E040E050E0281B390B4B
:100CB0004A0B5B0B04C016950795F794E7948A9549
:100CC000D2F7F701E259FE4F8081281B3109410913
:100CD0005109C9011F910F91FF90EF900895DF9284
:100CE000EF92FF920F931F93FC01E480F580068141
:100CF0001781D1808081823048F480E090E0A0E1CB
:100D0000B0E0E82AF92A0A2B1B2BA5C0843009F48D
:100D10009FC0823021F4EE24FF24870105C0E11436
:100D2000F1040105110519F4E0E0F0E096C06281DC
:100D300073819FEF623879070CF05BC022E83FEFC8
:100D4000261B370B2A3131052CF020E030E040E043
:100D500050E02AC0B801A701022E04C0769567951D
:100D6000579547950A94D2F781E090E0A0E0B0E073
:100D700004C0880F991FAA1FBB1F2A95D2F701979D
:100D8000A109B1098E219F21A023B1230097A105BC
:100D9000B10521F081E090E0A0E0B0E09A01AB0164
:100DA000282B392B4A2B5B2BDA01C9018F779070E6
:100DB000A070B07080349105A105B10539F427FF0A
:100DC00009C0205C3F4F4F4F5F4F04C0215C3F4F35
:100DD0004F4F5F4FE0E0F0E02030A0E03A07A0E0A6
:100DE0004A07A0E45A0710F0E1E0F0E079018A0137
:100DF00027C06038710564F5FB01E158FF4FD80149
:100E0000C7018F779070A070B07080349105A105F4
:100E1000B10539F4E7FE0DC080E490E0A0E0B0E059
:100E200004C08FE390E0A0E0B0E0E80EF91E0A1FD6
:100E30001B1F17FF05C016950795F794E794319689
:100E400087E016950795F794E7948A95D1F705C042
:100E5000EE24FF248701EFEFF0E06E2F6795662701
:100E60006795902F9F77D794DD24D7948E2F869502
:100E7000492F462B582F5D29B701CA011F910F91A9
:100E8000FF90EF90DF900895FC01DB0140815181DC
:100E90002281622F6F7770E0221F2227221F938109
:100EA000892F880F822B282F30E0991F9927991FAF
:100EB00011969C93119721153105A9F541155105FE
:100EC0006105710511F482E037C082E89FEF139647
:100ED0009C938E9312979A01AB0167E0220F331F08
:100EE000441F551F6A95D1F783E08C930DC0220FE4
:100EF000331F441F551F12968D919C911397019794
:100F000013969C938E931297203080E0380780E0F0
:100F1000480780E4580758F314962D933D934D935A
:100F20005C93179708952F3F310579F441155105CA
:100F30006105710519F484E08C93089564FF03C082
:100F400081E08C9312C01C9210C02F573040139632
:100F50003C932E93129783E08C9387E0440F551FA8
:100F6000661F771F8A95D1F7706414964D935D9331
:100F70006D937C93179708951F93DC01FB019C915F
:100F8000923008F447C08081823008F443C0943026
:100F900051F411961C91843099F58181682F70E08D
:100FA000611B71093FC0843021F0923031F48230EE
:100FB000B9F18181882389F12DC011961C91119777
:100FC0008230F1F081811817D9F412962D913C915D
:100FD0001397828193818217930794F0281739071A
:100FE000BCF014968D919D910D90BC91A02D248103
:100FF000358146815781281739074A075B0718F45E
:10100000112341F00AC082179307A407B50740F4E3
:10101000112319F061E070E005C06FEF7FEF02C0AF
:1010200060E070E0CB011F9108950F931F938C0136
:10103000FC01868160E00E94271481E090E00E941C
:101040005413F801868161E00E94271481E090E04A
:101050000E945413F801868160E00E94271484E600
:1010600090E00E9454131F910F910895CF92DF9248
:10107000EF92FF920F931F93CF93DF93D82EC92E39
:10108000282F392FC9018C01C0E0D0E0E62EFF24C3
:10109000F801878161E00E94BB13B7010C2E02C0EA
:1010A000759567950A94E2F76170F80187810E944F
:1010B000271421960F5F1F4FC830D10549F78D2D9A
:1010C0009C2D0E941508DF91CF911F910F91FF90E9
:1010D000EF90DF90CF900895CF92DF92EF92FF9242
:1010E0000F931F93CF93DF93D82EC92E282F392F1C
:1010F000C9018C01C0E0D0E0E62EFF24F801878111
:1011000061E00E94BB13B7010C2E02C07595679574
:101110000A94E2F76170F80187810E9427142196F2
:101120000F5F1F4FC430D10549F78D2D9C2D0E94B4
:101130001508DF91CF911F910F91FF90EF90DF90F5
:10114000CF9008951F93CF93DF93EC01162F8C81DE
:10115000642F0E9427148D818F3F19F060E00E9458
:1011600027148F8584FF05C0CE01612F0E943608A9
:101170000EC0612F70E084E0759567958A95E1F760
:10118000CE010E946C08CE01612F0E946C08DF9195
:10119000CF911F91089541E00E94A20881E090E064
:1011A000089540E00E94A2080895FC016089862FFE
:1011B0008460808B6C60CF010E94D1080895DF931A
:1011C000CF93CDB7DEB728970FB6F894DEBF0FBE2A
:1011D000CDBF9C01FE013196A1E8B2E088E00D9000
:1011E00001928150E1F7F9018389481710F0482FE7
:1011F0004150E42FF0E0EE0FFF1FEC0FFD1F818147
:10120000680F6068C9010E94D10828960FB6F8944B
:10121000DEBF0FBECDBFCF91DF91089561E00E9488
:10122000D10880ED97E00E9454130895CF93DF9387
:10123000EC01423018F08F8588608F874B8B1C8AB9
:10124000222329F0413019F48F8584608F8780E54F
:1012500093EC0E9454138C8160E00E9427148E81CD
:1012600060E00E9427148D818F3F19F060E00E949A
:1012700027146F8564FD1DC0CE0163E00E946C08D9
:1012800084E991E10E945413CE0163E00E946C084E
:1012900084E991E10E945413CE0163E00E946C083E
:1012A00086E990E00E945413CE0162E00E946C082F
:1012B00016C06062CE010E94D10884E991E10E94CB
:1012C00054136F856062CE010E94D10886E990E0D8
:1012D0000E9454136F856062CE010E94D1086F8511
:1012E0006062CE010E94D10884E0888BCE010E940A
:1012F000D508CE010E940E0982E0898BCE0166E0FE
:101300000E94D108DF91CF9108956F927F928F92C2
:10131000AF92CF92EF920F931F93DF93CF93CDB7FE
:10132000DEB73C01162F842FF30144832583068307
:10133000E782C086A18682869D8593879E85948755
:101340009F8595879889968761E00E94BB13F3017A
:1013500085818F3F19F061E00E94BB13F301868104
:1013600061E00E94BB13112319F0F301178603C03B
:1013700080E1F3018787C30160E141E020E00E9442
:101380001609CF91DF911F910F91EF90CF90AF9001
:101390008F907F906F9008958F92AF92CF92EF923F
:1013A0000F931F93CF93DF93DC01362F542F722FAF
:1013B000102FAE2C8C2C13961C921E9212978DE738
:1013C00092E011969C938E9300D000D0EDB7FEB7BB
:1013D0003196CDB7DEB71982118212821382CD0108
:1013E00061E0432F2FEF052FE72EC12E0E948509C4
:1013F0000F900F900F900F90DF91CF911F910F9151
:10140000EF90CF90AF908F9008952F923F924F9290
:101410005F926F927F928F929F92AF92BF92CF9284
:10142000DF92EF92FF920F931F93DF93CF9300D041
:1014300000D0CDB7DEB71C0149835A836B837C8310
:101440004801590126013701CB01BA0120E030E003
:1014500040E050E00E946A0487FD8CC0C501B401E1
:1014600020E030E040E050E00E946A0487FD82C046
:10147000C701B60120E030E040E050E00E946A047D
:1014800087FD78C089819A81AB81BC81F10180831D
:101490009183A283B383D10114968D929D92AD92D4
:1014A000BC921797C086D186E286F38664A575A59F
:1014B00086A597A50E94A70520E030E04AE754E4FE
:1014C0000E945E037B018C0189819A81AB81BC8182
:1014D000F10184879587A687B787C501B401A80164
:1014E00097010E9464025B016C01D10150966D93DB
:1014F0007D938D939C935397C301B201A8019701EB
:101500000E945E037B018C01F101648B758B868BDD
:10151000978B808D918D019769F560E070E080E098
:1015200090E029813A814B815C810E940602D101C1
:101530001C966D937D938D939C931F9760E070E054
:1015400080E090E0A60195010E940602F101608B07
:10155000718B828B938B60E070E080E090E0A8015B
:1015600097010E940602D10154966D937D938D934D
:101570009C9357970F900F900F900F90CF91DF9102
:101580001F910F91FF90EF90DF90CF90BF90AF90A1
:101590009F908F907F906F905F904F903F902F9093
:1015A00008954F925F926F927F928F929F92AF9227
:1015B000BF92CF92DF92EF92FF920F931F93CF9340
:1015C000DF93EC013A014B0178018901CB01BA01AB
:1015D000A80197010E943A0487FF4EC068AA79AA21
:1015E0008AAA9BAAECAAFDAA0EAB1FAB88AD8823E2
:1015F00009F442C04C8C5D8CF201A080B180C280A5
:10160000D380C601B501A80197010E940A041816EB
:1016100034F4F201E082F182028313830DC0C6012B
:10162000B501A40193010E946A0488232CF4F201FD
:101630006082718282829382ACA0BDA0CEA0DFA026
:10164000ECA8FDA80EA91FA9C601B501A801970124
:101650000E940A04181664F0E8A8F9A80AA91BA9B0
:10166000C601B501A80197010E946A04882324F4E9
:10167000ECA2FDA20EA31FA3DF91CF911F910F91AA
:10168000FF90EF90DF90CF90BF90AF909F908F90A2
:101690007F906F905F904F900895AF92BF92CF92DE
:1016A000DF92EF92FF920F931F93CF93DF93EC01A2
:1016B000EC8DFD8DE080F18002811381ECA2FDA212
:1016C0000EA31FA3EA8DFB8D80819181A281B3813E
:1016D00088A799A7AAA7BBA7ACA8BDA8CEA8DFA832
:1016E000C801B701A60195010E940A04181664F00A
:1016F000A8A8B9A8CAA8DBA8C801B701A601950186
:101700000E946A04882324F4ACA2BDA2CEA2DFA268
:10171000DF91CF911F910F91FF90EF90DF90CF90CD
:10172000BF90AF9008951F93CF93DF93EC0110E02B
:101730006130710509F411E088AD91E0892718172F
:1017400019F4CE010E944D0B18AFDF91CF911F917C
:1017500008950F931F93CF93DF93EC018B0188AD16
:10176000882379F1888D998D6817790751F160E0A8
:1017700070E080E090E02C853D854E855F850E947D
:1017800006026C877D878E879F8760E070E080E02F
:1017900090E0288939894A895B890E940602688B12
:1017A000798B8A8B9B8B60E070E080E090E02C89E5
:1017B0003D894E895F890E9406026C8B7D8B8E8BE2
:1017C0009F8B198F088FDF91CF911F910F910895F3
:1017D0002F923F924F925F926F927F928F929F9241
:1017E000AF92BF92CF92DF92EF92FF920F931F932F
:1017F000DF93CF9300D000D000D0CDB7DEB79E836B
:101800008D83DC01D8968C91882309F4E5C00E9471
:10181000FA1269837A838B839C83ED81FE8180A198
:1018200091A1A2A1B3A129813A814B815C81281B9E
:10183000390B4A0B5B0B84A595A5A6A5B7A5281760
:1018400039074A075B0708F4C7C0028CF38DE02D07
:101850002080318042805380AD81BE815E96ED91C3
:10186000FC915F976081718182819381A2019101D6
:101870000E9406023B014C01ED81FE8120893189E5
:10188000428953890E946402AD81BE8194962D9154
:101890003D914D915C9197970E9437027B018C019D
:1018A000ED81FE8164A375A386A397A3A4A8B5A820
:1018B000C6A8D7A8A60195010E940A04181674F0BC
:1018C000ED81FE81A0A8B1A8C2A8D3A8C801B70124
:1018D000A60195010E946A04882344F4AD81BE816B
:1018E0009496AD92BD92CD92DC929797C401B301CC
:1018F000ED81FE8124853585468557850E946402E9
:10190000AD81BE8194962D913D914D915C919797BB
:101910000E9437027B018C01C201B101ED81FE8181
:1019200020A531A542A553A50E940602AD81BE8126
:1019300054962D913D914D915C9157970E94640270
:101940009B01AC01C801B7010E9406027B018C011A
:10195000ED81FE81D4A8C5A8B6A8A7A82D2D3C2D41
:101960004B2D5A2D0E940A041816BCF0AD81BE8181
:10197000D096DC90D097D196CC90D197D296BC904F
:10198000D297D396AC90C801B7012D2D3C2D4B2D8D
:101990005A2D0E946A04882334F48D2D9C2DAB2D82
:1019A000BA2D7C018D01AD81BE815C96ED91FC91DB
:1019B0005D97E082F18202831383FD0120A631A6A8
:1019C00042A653A689819A81AB81BC8180A391A351
:1019D000A2A3B3A381E001C080E026960FB6F894DD
:1019E000DEBF0FBECDBFCF91DF911F910F91FF9052
:1019F000EF90DF90CF90BF90AF909F908F907F90AF
:101A00006F905F904F903F902F9008954F925F920C
:101A10006F927F928F929F92AF92BF92CF92DF92FE
:101A2000EF92FF920F931F93DF93CF93CDB7DEB763
:101A30004C0127013801FC01558F448F738F628F51
:101A4000378F268F10AE40E050E060E070E000E09D
:101A500010E02FE733E40E94D10A84E690E0A0E092
:101A6000B0E0F40184A795A7A6A7B7A7C4016F8922
:101A7000788D0E94A90BC401B301A20196018501D2
:101A8000CB88DC88ED88FE880E94050A0E94FA1245
:101A9000F40124A535A546A557A5621B730B840B3D
:101AA000950B60A371A382A393A3CF91DF911F91A4
:101AB0000F91FF90EF90DF90CF90BF90AF909F90ED
:101AC0008F907F906F905F904F900895219A229A07
:101AD00029982A9882EA8093800089E18093810086
:101AE00084EC99E09093870080938600109289009F
:101AF0001092880010928B0010928A000895109224
:101B000089001092880010928B0010928A0082E067
:101B10008093800088E18093810029982A98089515
:101B200083E08093B0008AE08093B10088EC8093DA
:101B3000B30082E0809370005B98089583E0809307
:101B4000B00088E08093B10088EC8093B30082E01D
:101B5000809370005A98089533990CC080E49CE9F2
:101B60000197F1F7339BFECF80E49CE90197F1F7F1
:101B700081E0089534990CC080E49CE90197F1F765
:101B8000349BFECF80E49CE90197F1F78FEF089535
:101B9000359B02C082E0089580E49CE90197F1F74B
:101BA000359BFECF80E49CE90197F1F780E0089532
:101BB0001F920F920FB60F9211240F900FBE0F902D
:101BC0001F9018951F920F920FB60F9211242F930A
:101BD0008F939F938091B0029091B10229E0843C51
:101BE000920749F41092B1021092B0028BB194E0C6
:101BF00089278BB905C001969093B1028093B002FA
:101C00009F918F912F910F900FBE0F901F9018955D
:101C1000AF92BF92CF92DF92EF92FF920F931F93FA
:101C20008AE892E068E047E026E005E055E1E52E2D
:101C300034E1C32E0E94CC0900D000D000D0E09047
:101C40007002F09071020091720210917302A090E4
:101C50007402B0907502C0907602D09077028091A5
:101C6000BE029091BF02A091C002B091C102EDB737
:101C7000FEB781839283A383B4831682158282EC9C
:101C800092E066EB72E04AEB52E022EB32E00E9417
:101C9000060D8DB79EB706960FB6F8949EBF0FBE81
:101CA0008DBF1F910F91FF90EF90DF90CF90BF906D
:101CB000AF90089581E00E949913AA2797FDA095FF
:101CC000BA2FBC01CD010E94F50408950E945A0E5E
:101CD00020E030E04AE754E40E940A049091AF0209
:101CE0001816F4F49923C1F58AE892E06DE040E01B
:101CF0000E94DF088AE892E060E071E00E94BC1177
:101D00008AE892E060E041E00E94DF088AE892E021
:101D100064E071E00E94BC1181E08093AF020895FD
:101D20009923D1F08AE892E06DE040E00E94DF085C
:101D30008AE892E064E171E00E94BC118AE892E0D6
:101D400060E041E00E94DF088AE892E068E171E02B
:101D50000E94BC111092AF02089587E00E9499136F
:101D6000AA2797FDA095BA2FBC01CD010E94F504CA
:101D7000089582E00E9499139C01220F331F220FC5
:101D8000331F280F391F442737FD4095542FCA01B0
:101D9000B9010E94F50420E030EC4FE754E40E94C2
:101DA0005E032DEC3CEC4CED50E40E945E0320E021
:101DB00030E04AE754E40E946402089580E00E9403
:101DC00099139C01220F331F220F331F280F391F35
:101DD000442737FD4095542FCA01B9010E94F504EC
:101DE00020E030EC4FE754E40E945E032DEC3CEC25
:101DF0004CED50E40E945E0320E030E04AE754E4FA
:101E00000E9464020895EF92FF920F931F930AE8D5
:101E100012E0C80163E040E00E94DF08C80168E208
:101E200071E00E94BC110E94DE0EAB01BC01409328
:101E30009F025093A0026093A1027093A202C80176
:101E400022E030E00E94A312FBE2EF2EF1E0FF2E31
:101E5000C801B7010E94BC11C8016AE040E00E94BD
:101E6000DF08C8016EE271E00E94BC110E94B90E49
:101E70006093A3027093A4028093A5029093A6029C
:101E80000E9453059B01AC01C801B9014AE050E032
:101E90000E94A911C801B7010E94BC11C80163E0EA
:101EA00041E00E94DF08C80162E371E00E94BC11BA
:101EB0000E94AD0E6093A7027093A8028093A902BE
:101EC0009093AA020E9453059B01AC01C801B9017D
:101ED0004AE050E00E94A911E4E1EE2EE1E0FE2E7E
:101EE000C801B7010E94BC11C8016AE041E00E942C
:101EF000DF08C80165E371E00E94BC110E945A0E20
:101F00006093AB027093AC028093AD029093AE02EB
:101F10000E9453059B01AC01C801B9014AE050E0A1
:101F20000E94A911C801B7010E94BC1164E670E0CB
:101F300080E090E00E942E131F910F91FF90EF9090
:101F40000895DF92EF92FF920F931F93CF93DF9349
:101F50000E945E138AE892E060E142E020E00E9485
:101F6000160987B117B88AB18C608AB90E945A0ED7
:101F70006093B6027093B7028093B8029093B9024F
:101F800080E090E0AEE3B4E48093B2029093B302B9
:101F9000A093B402B093B50282EC92E061E070E0ED
:101FA0000E94930BB8E0DB2EC3E0D0E0A1E0EA2E64
:101FB000F12C02E010E00E94660E80916E0290917A
:101FC0006F028130910579F1823091051CF4892BE3
:101FD00041F0F1CF8230910509F44EC0039759F7D3
:101FE000A0C00E94AC0D882331F78091AF028823F6
:101FF00099F4F0926F02E0926E028AE892E00E94F9
:102000000E098AE892E060E040E00E94DF088AE87A
:1020100092E068E371E0A1C0D0936F02C0936E02BA
:102020001092AF02C8CF68EE73E080E090E00E94AB
:102030002E130E94660D0E949E0D10936F02009356
:102040006E028AE892E00E940E098AE892E060E05F
:1020500040E00E94DF088AE892E065E471E00E94B7
:10206000BC118AE892E060E041E00E94DF088AE863
:1020700092E068E471E071C08BB18D258BB90E944C
:102080005A0E6093B6027093B7028093B802909391
:10209000B90282EC92E00E94E80B6091BA02709162
:1020A000BB028091BC029091BD020E948E00709391
:1020B0008B0060938A000E94030F0E94AC0D88235E
:1020C00031F08130B9F08F3F09F075CF19C0D0934E
:1020D0006F02C0936E028AE892E00E940E098AE8BD
:1020E00092E060E040E00E94DF088AE892E06BE462
:1020F00071E033C080918800909189000A960CC0ED
:102100008091880090918900892B09F454CF8091A7
:102110008800909189000A979093890080938800A5
:102120004ACF0E947F0D68EE73E080E090E00E944D
:102130002E130E94900D10926F0210926E028AE888
:1021400092E00E940E098AE892E060E040E00E947E
:10215000DF088AE892E060E571E00E94BC112BCFB5
:10216000CF92DF92EF92FF920F931F93CF93DF9363
:102170007C016B018A01C0E0D0E00FC0D6016D91F7
:102180006D01D701ED91FC910190F081E02DC70127
:102190000995C80FD91F015010400115110571F79D
:1021A000CE01DF91CF911F910F91FF90EF90DF90C3
:1021B000CF900895CF93DF93EC016115710519F469
:1021C00020E030E00FC0DB010D900020E9F711970F
:1021D000A61BB70BE881F9810280F381E02DAD01E8
:1021E00009959C01C901DF91CF9108954F925F92AB
:1021F0007F928F929F92AF92BF92CF92DF92EF9297
:10220000FF920F931F93DF93CF93CDB7DEB7A197C4
:102210000FB6F894DEBF0FBECDBF2C01742ECB01DC
:10222000223008F42AE019A231E2C32ED12CCC0EC0
:10223000DD1E822E9924AA24BB24672D752FA501AB
:1022400094010E94791479018A01C801B701A5019E
:1022500094010E945A14472D461B0894C108D108C6
:102260004A3014F4405D01C0495CF6014083E1143A
:10227000F1040105110521F07E2C5F2DC801DDCF91
:10228000C201B6010E94DA10A1960FB6F894DEBF23
:102290000FBECDBFCF91DF911F910F91FF90EF90B7
:1022A000DF90CF90BF90AF909F908F907F905F9086
:1022B0004F900895DC012115310541F4ED91FC9119
:1022C0000190F081E02D642F099508950E94F61089
:1022D0000895CF92DF92EF92FF920F931F93CF93C7
:1022E000DF93EC016A017B012115310541F4E8819E
:1022F000F9810190F081E02D642F09951FC02A30EB
:102300003105D1F477FF17C0E881F9810190F081A0
:10231000E02D6DE209958C0144275527BA014C192F
:102320005D096E097F09CE012AE00E94F61098012E
:10233000280F391F04C02AE00E94F6109C01C90131
:10234000DF91CF911F910F91FF90EF90DF90CF9091
:102350000895EF92FF920F931F937B019A0100273C
:10236000F7FC0095102FB801A7010E9469111F9179
:102370000F91FF90EF9008950E94DA1008957F92D8
:102380008F929F92AF92BF92CF92DF92EF92FF9285
:102390000F931F93CF93DF934C017A018B01722E21
:1023A000CB01BA01A80197010E94CA04882321F039
:1023B000C40168E571E021C0C0E0D0E057016801C8
:1023C000E894D7F8C601B5012FEF3FEF4FE75FE77D
:1023D0000E94CA04882351F4C601B5012FEF3FEFD4
:1023E0004FE75FE70E949A04181614F0C1E0D0E0AE
:1023F000219739F0C4016CE571E00E94DA10EC011C
:1024000093C0C801B7012FEF3FEF4FE75FE40E9491
:102410000A04181654F0C801B7012FEF3FEF4FE739
:102420005FEC0E946A04882324F4C40160E671E032
:10243000E4CFC801B70120E030E040E050E00E9466
:102440006A0487FD03C0C0E0D0E00EC0D401ED9166
:10245000FC910190F081E02DC4016DE20995EC0141
:1024600017FB109517F9109520E030E040E05FE38E
:10247000DD240BC0CA01B90120E030E040E251E4A4
:102480000E945E039B01AC01D394D71498F3C8015A
:10249000B7010E9437025B016C010E948E007B0134
:1024A0008C01C401B801A7012AE030E00E945A1152
:1024B000C80FD91F772039F0C40164E671E00E948B
:1024C000DA10C80FD91FC801B7010E94A7059B01E8
:1024D000AC01C601B5010E94060224C020E030E034
:1024E00040E251E40E9464027B018C010E9453058A
:1024F0005B016C01CC24B7FCC094DC2CC401B60198
:10250000A5012AE030E00E946911C80FD91FC60159
:10251000B5010E94F5049B01AC01C801B7010E94FE
:1025200006027A947720D1F6CE01DF91CF911F91E8
:102530000F91FF90EF90DF90CF90BF90AF909F9062
:102540008F907F9008950E94BF1108951F920F925F
:102550000FB60F9211242F933F934F935F936F9376
:102560007F938F939F93AF93BF932091FF023091FE
:102570000003409101035091020370910303DA01BB
:10258000C9010296A11DB11D672F6A5F6D3730F03A
:102590006D57DA01C9010396A11DB11D60930303B4
:1025A0008093FF0290930003A0930103B093020372
:1025B0008091FB029091FC02A091FD02B091FE027D
:1025C0000196A11DB11D8093FB029093FC02A09384
:1025D000FD02B093FE02BF91AF919F918F917F91C9
:1025E0006F915F914F913F912F910F900FBE0F9080
:1025F0001F9018958FB7F8942091FF023091000337
:1026000040910103509102038FBFB901CA0108959F
:102610009FB7F8942091FB023091FC024091FD029B
:102620005091FE0286B5A89B06C08F3F21F02F5F18
:102630003F4F4F4F5F4F9FBF542F432F322F2227C3
:10264000280F311D411D511D83E0220F331F441FF0
:10265000551F8A95D1F7B901CA010895EF92FF92EB
:102660000F931F93CF93DF937B018C010E9408137C
:10267000EB010EC00E9408136C1B7D0B685E73405B
:10268000C8F30894E108F10801091109C851DC4FA9
:10269000E114F1040105110569F7DF91CF911F9154
:1026A0000F91FF90EF900895019739F0019729F06D
:1026B000880F991F01970197F1F70895789484B5D1
:1026C000826084BD84B5816084BD85B5826085BD2E
:1026D00085B5816085BDEEE6F0E080818160808314
:1026E000E1E8F0E0108280818260808380818160F7
:1026F0008083E0E8F0E0808181608083E1EBF0E0BE
:10270000808184608083E0EBF0E080818160808361
:10271000EAE7F0E08081846080838081826080834A
:102720008081816080838081806880831092C10075
:102730000895982F8E3008F09E50977080917802FF
:102740008295880F880F807C892B80937C008091F4
:102750007A00806480937A0080917A0086FDFCCFB5
:102760002091780040917900942F80E030E0282B70
:10277000392BC9010895CF93DF93482F50E0CA0148
:1027800084569F4FFC0134914A575F4FFA01849160
:10279000882369F190E0880F991FFC01E859FF4FE9
:1027A000A591B491FC01EE58FF4FC591D4916623D9
:1027B00051F42FB7F8948C91932F909589238C9393
:1027C000888189230BC0623061F42FB7F8948C9113
:1027D000932F909589238C938881832B88832FBF97
:1027E00006C09FB7F8948C91832B8C939FBFDF9189
:1027F000CF910895833071F0843028F48130A1F0B6
:10280000823021F514C08630B1F08730D1F08430A9
:10281000E9F404C0809180008F7703C0809180002C
:102820008F7D80938000089584B58F7702C084B532
:102830008F7D84BD08958091B0008F778093B00024
:1028400008958091B0008F7D8093B0000895FF922D
:102850000F931F93F62E482F50E0CA018E549F4FBE
:10286000FC012491CA0184569F4FFC0114914A57E0
:102870005F4FFA0104910023C9F0222319F0822F3F
:102880000E94FA13E02FF0E0EE0FFF1FEE58FF4F0B
:10289000A591B4919FB7F894FF2021F48C911095E5
:1028A000812302C08C91812B8C939FBF1F910F912C
:1028B000FF900895629FD001739FF001829FE00D09
:1028C000F11D649FE00DF11D929FF00D839FF00DAF
:1028D000749FF00D659FF00D9927729FB00DE11D5B
:1028E000F91F639FB00DE11DF91FBD01CF01112438
:1028F0000895A1E21A2EAA1BBB1BFD010DC0AA1F41
:10290000BB1FEE1FFF1FA217B307E407F50720F058
:10291000A21BB30BE40BF50B661F771F881F991FD3
:102920001A9469F760957095809590959B01AC011C
:10293000BD01CF0108952F923F924F925F926F9207
:102940007F928F929F92AF92BF92CF92DF92EF923F
:10295000FF920F931F93CF93DF93CDB7DEB7CA1BC0
:10296000DB0B0FB6F894DEBF0FBECDBF09942A88EB
:10297000398848885F846E847D848C849B84AA8493
:10298000B984C884DF80EE80FD800C811B81AA8120
:10299000B981CE0FD11D0FB6F894DEBF0FBECDBFEB
:1029A000ED010895EE0FFF1F0590F491E02D0994BD
:0429B000F894FFCFC9
:1029B400343034004C61736572204E6F7420466F5E
:1029C400756E64002020200020202020202020205C
:1029D40020202020202020004920002020004970B1
:1029E4002000502000542000494E495449414C498C
:1029F4005A494E47004F7C004E7C0053544F5000C0
:102A04005354414E444259006E616E00696E660033
:102A14006F7666002E000000000000000000000138
:102A24000202030303030404040404040404050568
:102A34000505050505050505050505050505060640
:102A44000606060606060606060606060606060622
:102A54000606060606060606060606060606070710
:102A640007070707070707070707070707070707F2
:102A740007070707070707070707070707070707E2
:102A840007070707070707070707070707070707D2
:102A940007070707070707070707070707070808C0
:102AA40008080808080808080808080808080808A2
:102AB4000808080808080808080808080808080892
:102AC4000808080808080808080808080808080882
:102AD4000808080808080808080808080808080872
:102AE4000808080808080808080808080808080862
:102AF4000808080808080808080808080808080852
:102B04000808080808080808080808080808080841
:102B1400080808080808080808080808080803003E
:102B24000000F041000020410100000000CB08B08B
:0A2B340010000040001400540000DF
:00000001FF
